{
  "_format": "hh-sol-artifact-1",
  "contractName": "Lock",
  "sourceName": "contracts/Lock.sol",
  "abi": [
    {
      "inputs": [
        {
          "internalType": "uint256",
          "name": "_unlockTime",
          "type": "uint256"
        }
      ],
      "stateMutability": "payable",
      "type": "constructor"
    },
    {
      "anonymous": false,
      "inputs": [
        {
          "indexed": true,
          "internalType": "address",
          "name": "user",
          "type": "address"
        },
        {
          "indexed": false,
          "internalType": "uint256",
          "name": "tokenSpent",
          "type": "uint256"
        },
        {
          "indexed": false,
          "internalType": "uint256",
          "name": "ethGained",
          "type": "uint256"
        }
      ],
      "name": "Converted",
      "type": "event"
    },
    {
      "anonymous": false,
      "inputs": [
        {
          "indexed": true,
          "internalType": "address",
          "name": "from",
          "type": "address"
        },
        {
          "indexed": false,
          "internalType": "uint256",
          "name": "amount",
          "type": "uint256"
        },
        {
          "indexed": false,
          "internalType": "uint256",
          "name": "when",
          "type": "uint256"
        }
      ],
      "name": "Deposit",
      "type": "event"
    },
    {
      "anonymous": false,
      "inputs": [
        {
          "indexed": true,
          "internalType": "address",
          "name": "user",
          "type": "address"
        },
        {
          "indexed": false,
          "internalType": "string",
          "name": "duckType",
          "type": "string"
        },
        {
          "indexed": false,
          "internalType": "uint256",
          "name": "quantity",
          "type": "uint256"
        }
      ],
      "name": "DuckBought",
      "type": "event"
    },
    {
      "anonymous": false,
      "inputs": [
        {
          "indexed": false,
          "internalType": "address",
          "name": "sender",
          "type": "address"
        },
        {
          "indexed": false,
          "internalType": "uint256",
          "name": "amount",
          "type": "uint256"
        }
      ],
      "name": "Received",
      "type": "event"
    },
    {
      "anonymous": false,
      "inputs": [
        {
          "indexed": true,
          "internalType": "address",
          "name": "user",
          "type": "address"
        },
        {
          "indexed": false,
          "internalType": "uint256",
          "name": "amount",
          "type": "uint256"
        }
      ],
      "name": "TokenEarned",
      "type": "event"
    },
    {
      "anonymous": false,
      "inputs": [
        {
          "indexed": true,
          "internalType": "address",
          "name": "from",
          "type": "address"
        },
        {
          "indexed": false,
          "internalType": "uint256",
          "name": "amount",
          "type": "uint256"
        },
        {
          "indexed": false,
          "internalType": "uint256",
          "name": "when",
          "type": "uint256"
        }
      ],
      "name": "Withdrawal",
      "type": "event"
    },
    {
      "inputs": [
        {
          "internalType": "string",
          "name": "duckType",
          "type": "string"
        },
        {
          "internalType": "uint256",
          "name": "quantity",
          "type": "uint256"
        }
      ],
      "name": "buyDuck",
      "outputs": [],
      "stateMutability": "nonpayable",
      "type": "function"
    },
    {
      "inputs": [],
      "name": "collectEgg",
      "outputs": [],
      "stateMutability": "nonpayable",
      "type": "function"
    },
    {
      "inputs": [],
      "name": "convertTokenToETH",
      "outputs": [],
      "stateMutability": "nonpayable",
      "type": "function"
    },
    {
      "inputs": [],
      "name": "deposit",
      "outputs": [],
      "stateMutability": "payable",
      "type": "function"
    },
    {
      "inputs": [
        {
          "internalType": "address",
          "name": "",
          "type": "address"
        }
      ],
      "name": "duckInitialized",
      "outputs": [
        {
          "internalType": "bool",
          "name": "",
          "type": "bool"
        }
      ],
      "stateMutability": "view",
      "type": "function"
    },
    {
      "inputs": [
        {
          "internalType": "address",
          "name": "",
          "type": "address"
        }
      ],
      "name": "ethBalances",
      "outputs": [
        {
          "internalType": "uint256",
          "name": "",
          "type": "uint256"
        }
      ],
      "stateMutability": "view",
      "type": "function"
    },
    {
      "inputs": [],
      "name": "getContractBalance",
      "outputs": [
        {
          "internalType": "uint256",
          "name": "",
          "type": "uint256"
        }
      ],
      "stateMutability": "view",
      "type": "function"
    },
    {
      "inputs": [
        {
          "internalType": "address",
          "name": "user",
          "type": "address"
        },
        {
          "internalType": "string",
          "name": "duckType",
          "type": "string"
        }
      ],
      "name": "getDuckCount",
      "outputs": [
        {
          "internalType": "uint256",
          "name": "",
          "type": "uint256"
        }
      ],
      "stateMutability": "view",
      "type": "function"
    },
    {
      "inputs": [],
      "name": "getOwner",
      "outputs": [
        {
          "internalType": "address",
          "name": "",
          "type": "address"
        }
      ],
      "stateMutability": "view",
      "type": "function"
    },
    {
      "inputs": [
        {
          "internalType": "address",
          "name": "user",
          "type": "address"
        }
      ],
      "name": "getUserBalance",
      "outputs": [
        {
          "internalType": "uint256",
          "name": "",
          "type": "uint256"
        }
      ],
      "stateMutability": "view",
      "type": "function"
    },
    {
      "inputs": [
        {
          "internalType": "address",
          "name": "user",
          "type": "address"
        }
      ],
      "name": "getUserTokenBalance",
      "outputs": [
        {
          "internalType": "uint256",
          "name": "",
          "type": "uint256"
        }
      ],
      "stateMutability": "view",
      "type": "function"
    },
    {
      "inputs": [
        {
          "internalType": "address",
          "name": "user",
          "type": "address"
        }
      ],
      "name": "hasInitDuck",
      "outputs": [
        {
          "internalType": "bool",
          "name": "",
          "type": "bool"
        }
      ],
      "stateMutability": "view",
      "type": "function"
    },
    {
      "inputs": [],
      "name": "initDuck",
      "outputs": [],
      "stateMutability": "nonpayable",
      "type": "function"
    },
    {
      "inputs": [],
      "name": "owner",
      "outputs": [
        {
          "internalType": "address",
          "name": "",
          "type": "address"
        }
      ],
      "stateMutability": "view",
      "type": "function"
    },
    {
      "inputs": [
        {
          "internalType": "address",
          "name": "",
          "type": "address"
        }
      ],
      "name": "tokenBalances",
      "outputs": [
        {
          "internalType": "uint256",
          "name": "",
          "type": "uint256"
        }
      ],
      "stateMutability": "view",
      "type": "function"
    },
    {
      "inputs": [],
      "name": "unlockTime",
      "outputs": [
        {
          "internalType": "uint256",
          "name": "",
          "type": "uint256"
        }
      ],
      "stateMutability": "view",
      "type": "function"
    },
    {
      "inputs": [
        {
          "internalType": "address",
          "name": "",
          "type": "address"
        },
        {
          "internalType": "string",
          "name": "",
          "type": "string"
        }
      ],
      "name": "userDucks",
      "outputs": [
        {
          "internalType": "uint256",
          "name": "",
          "type": "uint256"
        }
      ],
      "stateMutability": "view",
      "type": "function"
    },
    {
      "inputs": [
        {
          "internalType": "uint256",
          "name": "amount",
          "type": "uint256"
        }
      ],
      "name": "withdraw",
      "outputs": [],
      "stateMutability": "payable",
      "type": "function"
    },
    {
      "stateMutability": "payable",
      "type": "receive"
    }
  ],
  "bytecode": "0x6080604052604051611ea1380380611ea1833981810160405281019061002591906100ef565b804210610067576040517f08c379a000000000000000000000000000000000000000000000000000000000815260040161005e9061019f565b60405180910390fd5b80600181905550336000806101000a81548173ffffffffffffffffffffffffffffffffffffffff021916908373ffffffffffffffffffffffffffffffffffffffff160217905550506101bf565b600080fd5b6000819050919050565b6100cc816100b9565b81146100d757600080fd5b50565b6000815190506100e9816100c3565b92915050565b600060208284031215610105576101046100b4565b5b6000610113848285016100da565b91505092915050565b600082825260208201905092915050565b7f556e6c6f636b2074696d652073686f756c6420626520696e207468652066757460008201527f7572650000000000000000000000000000000000000000000000000000000000602082015250565b600061018960238361011c565b91506101948261012d565b604082019050919050565b600060208201905081810360008301526101b88161017c565b9050919050565b611cd3806101ce6000396000f3fe60806040526004361061010d5760003560e01c80636f9fb98a11610095578063c064cbc111610064578063c064cbc1146103a2578063d0e30db0146103b9578063ef9a3c8b146103c3578063f5aec88c14610400578063f8edb64b1461043d5761014d565b80636f9fb98a1461030a578063893d20e8146103355780638da5cb5b14610360578063a534106c1461038b5761014d565b8063289a0f8a116100dc578063289a0f8a146101fa5780632e1a7d4d146102375780633cfba0e3146102535780634773489214610290578063523fba7f146102cd5761014d565b8063039d2490146101525780631aae64451461018f5780631f2eb929146101b8578063251c1aa3146101cf5761014d565b3661014d577f88a5966d370b9919b20f3e2c13ff65706f196a4e32cc2c12bf57088f8852587433346040516101439291906111f7565b60405180910390a1005b600080fd5b34801561015e57600080fd5b50610179600480360381019061017491906113a6565b61047a565b6040516101869190611402565b60405180910390f35b34801561019b57600080fd5b506101b660048036038101906101b19190611449565b6104e0565b005b3480156101c457600080fd5b506101cd610852565b005b3480156101db57600080fd5b506101e4610a1b565b6040516101f19190611402565b60405180910390f35b34801561020657600080fd5b50610221600480360381019061021c91906114a5565b610a21565b60405161022e91906114ed565b60405180910390f35b610251600480360381019061024c9190611508565b610a77565b005b34801561025f57600080fd5b5061027a600480360381019061027591906114a5565b610c71565b6040516102879190611402565b60405180910390f35b34801561029c57600080fd5b506102b760048036038101906102b291906114a5565b610c89565b6040516102c49190611402565b60405180910390f35b3480156102d957600080fd5b506102f460048036038101906102ef91906114a5565b610cd2565b6040516103019190611402565b60405180910390f35b34801561031657600080fd5b5061031f610cea565b60405161032c9190611402565b60405180910390f35b34801561034157600080fd5b5061034a610cf2565b6040516103579190611535565b60405180910390f35b34801561036c57600080fd5b50610375610d1b565b6040516103829190611535565b60405180910390f35b34801561039757600080fd5b506103a0610d3f565b005b3480156103ae57600080fd5b506103b7610f66565b005b6103c161100e565b005b3480156103cf57600080fd5b506103ea60048036038101906103e591906113a6565b6110f9565b6040516103f79190611402565b60405180910390f35b34801561040c57600080fd5b50610427600480360381019061042291906114a5565b611134565b6040516104349190611402565b60405180910390f35b34801561044957600080fd5b50610464600480360381019061045f91906114a5565b61117d565b60405161047191906114ed565b60405180910390f35b6000600460008473ffffffffffffffffffffffffffffffffffffffff1673ffffffffffffffffffffffffffffffffffffffff168152602001908152602001600020826040516104c991906115c1565b908152602001604051809103902054905092915050565b600560003373ffffffffffffffffffffffffffffffffffffffff1673ffffffffffffffffffffffffffffffffffffffff16815260200190815260200160002060009054906101000a900460ff166106a7576003600460003373ffffffffffffffffffffffffffffffffffffffff1673ffffffffffffffffffffffffffffffffffffffff16815260200190815260200160002060405161057e90611624565b9081526020016040518091039020819055506000600460003373ffffffffffffffffffffffffffffffffffffffff1673ffffffffffffffffffffffffffffffffffffffff1681526020019081526020016000206040516105dd90611685565b9081526020016040518091039020819055506000600460003373ffffffffffffffffffffffffffffffffffffffff1673ffffffffffffffffffffffffffffffffffffffff16815260200190815260200160002060405161063c906116e6565b9081526020016040518091039020819055506001600560003373ffffffffffffffffffffffffffffffffffffffff1673ffffffffffffffffffffffffffffffffffffffff16815260200190815260200160002060006101000a81548160ff0219169083151502179055505b60006611c37937e08000905080600360003373ffffffffffffffffffffffffffffffffffffffff1673ffffffffffffffffffffffffffffffffffffffff168152602001908152602001600020541015610735576040517f08c379a000000000000000000000000000000000000000000000000000000000815260040161072c90611758565b60405180910390fd5b80600360003373ffffffffffffffffffffffffffffffffffffffff1673ffffffffffffffffffffffffffffffffffffffff168152602001908152602001600020600082825461078491906117a7565b9250508190555081600460003373ffffffffffffffffffffffffffffffffffffffff1673ffffffffffffffffffffffffffffffffffffffff168152602001908152602001600020846040516107d991906115c1565b908152602001604051809103902060008282546107f691906117db565b925050819055503373ffffffffffffffffffffffffffffffffffffffff167fe626b1f11edd93894829c103d8177f37b7a802f875826f40056fe702861f48698484604051610845929190611848565b60405180910390a2505050565b600560003373ffffffffffffffffffffffffffffffffffffffff1673ffffffffffffffffffffffffffffffffffffffff16815260200190815260200160002060009054906101000a900460ff16610a19576003600460003373ffffffffffffffffffffffffffffffffffffffff1673ffffffffffffffffffffffffffffffffffffffff1681526020019081526020016000206040516108f090611624565b9081526020016040518091039020819055506000600460003373ffffffffffffffffffffffffffffffffffffffff1673ffffffffffffffffffffffffffffffffffffffff16815260200190815260200160002060405161094f90611685565b9081526020016040518091039020819055506000600460003373ffffffffffffffffffffffffffffffffffffffff1673ffffffffffffffffffffffffffffffffffffffff1681526020019081526020016000206040516109ae906116e6565b9081526020016040518091039020819055506001600560003373ffffffffffffffffffffffffffffffffffffffff1673ffffffffffffffffffffffffffffffffffffffff16815260200190815260200160002060006101000a81548160ff0219169083151502179055505b565b60015481565b6000600560008373ffffffffffffffffffffffffffffffffffffffff1673ffffffffffffffffffffffffffffffffffffffff16815260200190815260200160002060009054906101000a900460ff169050919050565b600154421015610abc576040517f08c379a0000000000000000000000000000000000000000000000000000000008152600401610ab3906118c4565b60405180910390fd5b80600360003373ffffffffffffffffffffffffffffffffffffffff1673ffffffffffffffffffffffffffffffffffffffff168152602001908152602001600020541015610b3e576040517f08c379a0000000000000000000000000000000000000000000000000000000008152600401610b3590611930565b60405180910390fd5b60008111610b81576040517f08c379a0000000000000000000000000000000000000000000000000000000008152600401610b78906119c2565b60405180910390fd5b80600360003373ffffffffffffffffffffffffffffffffffffffff1673ffffffffffffffffffffffffffffffffffffffff1681526020019081526020016000206000828254610bd091906117a7565b925050819055503373ffffffffffffffffffffffffffffffffffffffff166108fc829081150290604051600060405180830381858888f19350505050158015610c1d573d6000803e3d6000fd5b503373ffffffffffffffffffffffffffffffffffffffff167fdf273cb619d95419a9cd0ec88123a0538c85064229baa6363788f743fff90deb8242604051610c669291906119e2565b60405180910390a250565b60036020528060005260406000206000915090505481565b6000600360008373ffffffffffffffffffffffffffffffffffffffff1673ffffffffffffffffffffffffffffffffffffffff168152602001908152602001600020549050919050565b60026020528060005260406000206000915090505481565b600047905090565b60008060009054906101000a900473ffffffffffffffffffffffffffffffffffffffff16905090565b60008054906101000a900473ffffffffffffffffffffffffffffffffffffffff1681565b6000600260003373ffffffffffffffffffffffffffffffffffffffff1673ffffffffffffffffffffffffffffffffffffffff168152602001908152602001600020549050600a811015610dc7576040517f08c379a0000000000000000000000000000000000000000000000000000000008152600401610dbe90611a7d565b60405180910390fd5b6000600a82610dd69190611acc565b90506000600a82610de79190611afd565b9050670de0b6b3a764000082610dfd9190611afd565b471015610e3f576040517f08c379a0000000000000000000000000000000000000000000000000000000008152600401610e3690611b8b565b60405180910390fd5b80600260003373ffffffffffffffffffffffffffffffffffffffff1673ffffffffffffffffffffffffffffffffffffffff1681526020019081526020016000206000828254610e8e91906117a7565b92505081905550670de0b6b3a764000082610ea99190611afd565b600360003373ffffffffffffffffffffffffffffffffffffffff1673ffffffffffffffffffffffffffffffffffffffff1681526020019081526020016000206000828254610ef791906117db565b925050819055503373ffffffffffffffffffffffffffffffffffffffff167fe6a45eea08a42f7c3f90f290e8ecf15e16174981943adf509fc9ea49808a64c682670de0b6b3a764000085610f4b9190611afd565b604051610f599291906119e2565b60405180910390a2505050565b6001600260003373ffffffffffffffffffffffffffffffffffffffff1673ffffffffffffffffffffffffffffffffffffffff1681526020019081526020016000206000828254610fb691906117db565b925050819055503373ffffffffffffffffffffffffffffffffffffffff167f40bf1769f7c076b856e75d82a81560d4c51fd94216d1bc19497540144fdfd63960016040516110049190611bf0565b60405180910390a2565b60003411611051576040517f08c379a000000000000000000000000000000000000000000000000000000000815260040161104890611c7d565b60405180910390fd5b34600360003373ffffffffffffffffffffffffffffffffffffffff1673ffffffffffffffffffffffffffffffffffffffff16815260200190815260200160002060008282546110a091906117db565b925050819055503373ffffffffffffffffffffffffffffffffffffffff167f90890809c654f11d6e72a28fa60149770a0d11ec6c92319d6ceb2bb0a4ea1a1534426040516110ef9291906119e2565b60405180910390a2565b600460205281600052604060002081805160208101820180518482526020830160208501208183528095505050505050600091509150505481565b6000600260008373ffffffffffffffffffffffffffffffffffffffff1673ffffffffffffffffffffffffffffffffffffffff168152602001908152602001600020549050919050565b60056020528060005260406000206000915054906101000a900460ff1681565b600073ffffffffffffffffffffffffffffffffffffffff82169050919050565b60006111c88261119d565b9050919050565b6111d8816111bd565b82525050565b6000819050919050565b6111f1816111de565b82525050565b600060408201905061120c60008301856111cf565b61121960208301846111e8565b9392505050565b6000604051905090565b600080fd5b600080fd5b61123d816111bd565b811461124857600080fd5b50565b60008135905061125a81611234565b92915050565b600080fd5b600080fd5b6000601f19601f8301169050919050565b7f4e487b7100000000000000000000000000000000000000000000000000000000600052604160045260246000fd5b6112b38261126a565b810181811067ffffffffffffffff821117156112d2576112d161127b565b5b80604052505050565b60006112e5611220565b90506112f182826112aa565b919050565b600067ffffffffffffffff8211156113115761131061127b565b5b61131a8261126a565b9050602081019050919050565b82818337600083830152505050565b6000611349611344846112f6565b6112db565b90508281526020810184848401111561136557611364611265565b5b611370848285611327565b509392505050565b600082601f83011261138d5761138c611260565b5b813561139d848260208601611336565b91505092915050565b600080604083850312156113bd576113bc61122a565b5b60006113cb8582860161124b565b925050602083013567ffffffffffffffff8111156113ec576113eb61122f565b5b6113f885828601611378565b9150509250929050565b600060208201905061141760008301846111e8565b92915050565b611426816111de565b811461143157600080fd5b50565b6000813590506114438161141d565b92915050565b600080604083850312156114605761145f61122a565b5b600083013567ffffffffffffffff81111561147e5761147d61122f565b5b61148a85828601611378565b925050602061149b85828601611434565b9150509250929050565b6000602082840312156114bb576114ba61122a565b5b60006114c98482850161124b565b91505092915050565b60008115159050919050565b6114e7816114d2565b82525050565b600060208201905061150260008301846114de565b92915050565b60006020828403121561151e5761151d61122a565b5b600061152c84828501611434565b91505092915050565b600060208201905061154a60008301846111cf565b92915050565b600081519050919050565b600081905092915050565b60005b83811015611584578082015181840152602081019050611569565b60008484015250505050565b600061159b82611550565b6115a5818561155b565b93506115b5818560208601611566565b80840191505092915050565b60006115cd8284611590565b915081905092915050565b7f7768697465000000000000000000000000000000000000000000000000000000600082015250565b600061160e60058361155b565b9150611619826115d8565b600582019050919050565b600061162f82611601565b9150819050919050565b7f79656c6c6f770000000000000000000000000000000000000000000000000000600082015250565b600061166f60068361155b565b915061167a82611639565b600682019050919050565b600061169082611662565b9150819050919050565b7f7265640000000000000000000000000000000000000000000000000000000000600082015250565b60006116d060038361155b565b91506116db8261169a565b600382019050919050565b60006116f1826116c3565b9150819050919050565b600082825260208201905092915050565b7f4e6f7420656e6f756768204554482062616c616e636500000000000000000000600082015250565b60006117426016836116fb565b915061174d8261170c565b602082019050919050565b6000602082019050818103600083015261177181611735565b9050919050565b7f4e487b7100000000000000000000000000000000000000000000000000000000600052601160045260246000fd5b60006117b2826111de565b91506117bd836111de565b92508282039050818111156117d5576117d4611778565b5b92915050565b60006117e6826111de565b91506117f1836111de565b925082820190508082111561180957611808611778565b5b92915050565b600061181a82611550565b61182481856116fb565b9350611834818560208601611566565b61183d8161126a565b840191505092915050565b60006040820190508181036000830152611862818561180f565b905061187160208301846111e8565b9392505050565b7f596f752063616e27742077697468647261772079657400000000000000000000600082015250565b60006118ae6016836116fb565b91506118b982611878565b602082019050919050565b600060208201905081810360008301526118dd816118a1565b9050919050565b7f4e6f7420656e6f7567682062616c616e63650000000000000000000000000000600082015250565b600061191a6012836116fb565b9150611925826118e4565b602082019050919050565b600060208201905081810360008301526119498161190d565b9050919050565b7f576974686472617720616d6f756e74206d75737420626520677265617465722060008201527f7468616e207a65726f0000000000000000000000000000000000000000000000602082015250565b60006119ac6029836116fb565b91506119b782611950565b604082019050919050565b600060208201905081810360008301526119db8161199f565b9050919050565b60006040820190506119f760008301856111e8565b611a0460208301846111e8565b9392505050565b7f4e656564206174206c6561737420313020746f6b656e7320746f20636f6e766560008201527f7274000000000000000000000000000000000000000000000000000000000000602082015250565b6000611a676022836116fb565b9150611a7282611a0b565b604082019050919050565b60006020820190508181036000830152611a9681611a5a565b9050919050565b7f4e487b7100000000000000000000000000000000000000000000000000000000600052601260045260246000fd5b6000611ad7826111de565b9150611ae2836111de565b925082611af257611af1611a9d565b5b828204905092915050565b6000611b08826111de565b9150611b13836111de565b9250828202611b21816111de565b91508282048414831517611b3857611b37611778565b5b5092915050565b7f4e6f7420656e6f7567682045544820696e20636f6e7472616374000000000000600082015250565b6000611b75601a836116fb565b9150611b8082611b3f565b602082019050919050565b60006020820190508181036000830152611ba481611b68565b9050919050565b6000819050919050565b6000819050919050565b6000611bda611bd5611bd084611bab565b611bb5565b6111de565b9050919050565b611bea81611bbf565b82525050565b6000602082019050611c056000830184611be1565b92915050565b7f4465706f73697420616d6f756e74206d7573742062652067726561746572207460008201527f68616e207a65726f000000000000000000000000000000000000000000000000602082015250565b6000611c676028836116fb565b9150611c7282611c0b565b604082019050919050565b60006020820190508181036000830152611c9681611c5a565b905091905056fea2646970667358221220846b8ae8cc9b68b205d3a297e0dcf8579c13c20ef5ddc0399bc75618f8df162c64736f6c634300081c0033",
  "linkReferences": {},
  "deployedLinkReferences": {}
}